{
  "_format": "hh-sol-artifact-1",
  "contractName": "IPRRegistry",
  "sourceName": "contracts/IPRRegistry.sol",
  "abi": [
    {
      "anonymous": false,
      "inputs": [
        {
          "indexed": true,
          "internalType": "uint256",
          "name": "assetId",
          "type": "uint256"
        },
        {
          "indexed": true,
          "internalType": "address",
          "name": "owner",
          "type": "address"
        },
        {
          "indexed": false,
          "internalType": "string",
          "name": "fileHash",
          "type": "string"
        },
        {
          "indexed": false,
          "internalType": "string",
          "name": "ipfsCID",
          "type": "string"
        },
        {
          "indexed": false,
          "internalType": "uint256",
          "name": "timestamp",
          "type": "uint256"
        }
      ],
      "name": "AssetRegistered",
      "type": "event"
    },
    {
      "inputs": [
        {
          "internalType": "uint256",
          "name": "",
          "type": "uint256"
        }
      ],
      "name": "assets",
      "outputs": [
        {
          "internalType": "uint256",
          "name": "id",
          "type": "uint256"
        },
        {
          "internalType": "address",
          "name": "owner",
          "type": "address"
        },
        {
          "internalType": "string",
          "name": "fileHash",
          "type": "string"
        },
        {
          "internalType": "string",
          "name": "ipfsCID",
          "type": "string"
        },
        {
          "internalType": "uint256",
          "name": "timestamp",
          "type": "uint256"
        }
      ],
      "stateMutability": "view",
      "type": "function"
    },
    {
      "inputs": [
        {
          "internalType": "string",
          "name": "_fileHash",
          "type": "string"
        },
        {
          "internalType": "string",
          "name": "_ipfsCID",
          "type": "string"
        }
      ],
      "name": "registerIP",
      "outputs": [],
      "stateMutability": "nonpayable",
      "type": "function"
    },
    {
      "inputs": [],
      "name": "totalAssets",
      "outputs": [
        {
          "internalType": "uint256",
          "name": "",
          "type": "uint256"
        }
      ],
      "stateMutability": "view",
      "type": "function"
    },
    {
      "inputs": [
        {
          "internalType": "string",
          "name": "_fileHash",
          "type": "string"
        }
      ],
      "name": "verifyOwnership",
      "outputs": [
        {
          "internalType": "bool",
          "name": "",
          "type": "bool"
        },
        {
          "internalType": "address",
          "name": "",
          "type": "address"
        },
        {
          "internalType": "uint256",
          "name": "",
          "type": "uint256"
        }
      ],
      "stateMutability": "view",
      "type": "function"
    }
  ],
  "bytecode": "0x60806040526000805534801561001457600080fd5b50610e7f806100246000396000f3fe608060405234801561001057600080fd5b506004361061004c5760003560e01c806301e1d11414610051578063293f854e1461006f57806329ccb493146100a1578063cf35bdd0146100bd575b600080fd5b6100596100f1565b6040516100669190610534565b60405180910390f35b610089600480360381019061008491906106a9565b6100f7565b6040516100989392919061074e565b60405180910390f35b6100bb60048036038101906100b69190610785565b6101c5565b005b6100d760048036038101906100d29190610829565b6103b5565b6040516100e89594939291906108d5565b60405180910390f35b60005481565b600080600080600190505b60005481116101b1578480519060200120600160008381526020019081526020016000206002016040516101369190610a39565b60405180910390200361019e57600180600083815260200190815260200160002060010160009054906101000a900473ffffffffffffffffffffffffffffffffffffffff166001600084815260200190815260200160002060040154935093509350506101be565b80806101a990610a7f565b915050610102565b5060008060009250925092505b9193909250565b6002826040516101d59190610b03565b908152602001604051809103902060009054906101000a900460ff1615610231576040517f08c379a000000000000000000000000000000000000000000000000000000000815260040161022890610b66565b60405180910390fd5b60008081548092919061024390610a7f565b91905055506040518060a0016040528060005481526020013373ffffffffffffffffffffffffffffffffffffffff1681526020018381526020018281526020014281525060016000805481526020019081526020016000206000820151816000015560208201518160010160006101000a81548173ffffffffffffffffffffffffffffffffffffffff021916908373ffffffffffffffffffffffffffffffffffffffff16021790555060408201518160020190816103019190610d32565b5060608201518160030190816103179190610d32565b506080820151816004015590505060016002836040516103379190610b03565b908152602001604051809103902060006101000a81548160ff0219169083151502179055503373ffffffffffffffffffffffffffffffffffffffff166000547fbb962147f20022d54e0a2c2cb4805549f2e3608283a76350d7d53636d80299278484426040516103a993929190610e04565b60405180910390a35050565b60016020528060005260406000206000915090508060000154908060010160009054906101000a900473ffffffffffffffffffffffffffffffffffffffff169080600201805461040490610965565b80601f016020809104026020016040519081016040528092919081815260200182805461043090610965565b801561047d5780601f106104525761010080835404028352916020019161047d565b820191906000526020600020905b81548152906001019060200180831161046057829003601f168201915b50505050509080600301805461049290610965565b80601f01602080910402602001604051908101604052809291908181526020018280546104be90610965565b801561050b5780601f106104e05761010080835404028352916020019161050b565b820191906000526020600020905b8154815290600101906020018083116104ee57829003601f168201915b5050505050908060040154905085565b6000819050919050565b61052e8161051b565b82525050565b60006020820190506105496000830184610525565b92915050565b6000604051905090565b600080fd5b600080fd5b600080fd5b600080fd5b6000601f19601f8301169050919050565b7f4e487b7100000000000000000000000000000000000000000000000000000000600052604160045260246000fd5b6105b68261056d565b810181811067ffffffffffffffff821117156105d5576105d461057e565b5b80604052505050565b60006105e861054f565b90506105f482826105ad565b919050565b600067ffffffffffffffff8211156106145761061361057e565b5b61061d8261056d565b9050602081019050919050565b82818337600083830152505050565b600061064c610647846105f9565b6105de565b90508281526020810184848401111561066857610667610568565b5b61067384828561062a565b509392505050565b600082601f8301126106905761068f610563565b5b81356106a0848260208601610639565b91505092915050565b6000602082840312156106bf576106be610559565b5b600082013567ffffffffffffffff8111156106dd576106dc61055e565b5b6106e98482850161067b565b91505092915050565b60008115159050919050565b610707816106f2565b82525050565b600073ffffffffffffffffffffffffffffffffffffffff82169050919050565b60006107388261070d565b9050919050565b6107488161072d565b82525050565b600060608201905061076360008301866106fe565b610770602083018561073f565b61077d6040830184610525565b949350505050565b6000806040838503121561079c5761079b610559565b5b600083013567ffffffffffffffff8111156107ba576107b961055e565b5b6107c68582860161067b565b925050602083013567ffffffffffffffff8111156107e7576107e661055e565b5b6107f38582860161067b565b9150509250929050565b6108068161051b565b811461081157600080fd5b50565b600081359050610823816107fd565b92915050565b60006020828403121561083f5761083e610559565b5b600061084d84828501610814565b91505092915050565b600081519050919050565b600082825260208201905092915050565b60005b83811015610890578082015181840152602081019050610875565b60008484015250505050565b60006108a782610856565b6108b18185610861565b93506108c1818560208601610872565b6108ca8161056d565b840191505092915050565b600060a0820190506108ea6000830188610525565b6108f7602083018761073f565b8181036040830152610909818661089c565b9050818103606083015261091d818561089c565b905061092c6080830184610525565b9695505050505050565b7f4e487b7100000000000000000000000000000000000000000000000000000000600052602260045260246000fd5b6000600282049050600182168061097d57607f821691505b6020821081036109905761098f610936565b5b50919050565b600081905092915050565b60008190508160005260206000209050919050565b600081546109c381610965565b6109cd8186610996565b945060018216600081146109e857600181146109fd57610a30565b60ff1983168652811515820286019350610a30565b610a06856109a1565b60005b83811015610a2857815481890152600182019150602081019050610a09565b838801955050505b50505092915050565b6000610a4582846109b6565b915081905092915050565b7f4e487b7100000000000000000000000000000000000000000000000000000000600052601160045260246000fd5b6000610a8a8261051b565b91507fffffffffffffffffffffffffffffffffffffffffffffffffffffffffffffffff8203610abc57610abb610a50565b5b600182019050919050565b600081905092915050565b6000610add82610856565b610ae78185610ac7565b9350610af7818560208601610872565b80840191505092915050565b6000610b0f8284610ad2565b915081905092915050565b7f46696c6520616c72656164792072656769737465726564000000000000000000600082015250565b6000610b50601783610861565b9150610b5b82610b1a565b602082019050919050565b60006020820190508181036000830152610b7f81610b43565b9050919050565b60008190508160005260206000209050919050565b60006020601f8301049050919050565b600082821b905092915050565b600060088302610be87fffffffffffffffffffffffffffffffffffffffffffffffffffffffffffffffff82610bab565b610bf28683610bab565b95508019841693508086168417925050509392505050565b6000819050919050565b6000610c2f610c2a610c258461051b565b610c0a565b61051b565b9050919050565b6000819050919050565b610c4983610c14565b610c5d610c5582610c36565b848454610bb8565b825550505050565b600090565b610c72610c65565b610c7d818484610c40565b505050565b5b81811015610ca157610c96600082610c6a565b600181019050610c83565b5050565b601f821115610ce657610cb781610b86565b610cc084610b9b565b81016020851015610ccf578190505b610ce3610cdb85610b9b565b830182610c82565b50505b505050565b600082821c905092915050565b6000610d0960001984600802610ceb565b1980831691505092915050565b6000610d228383610cf8565b9150826002028217905092915050565b610d3b82610856565b67ffffffffffffffff811115610d5457610d5361057e565b5b610d5e8254610965565b610d69828285610ca5565b600060209050601f831160018114610d9c5760008415610d8a578287015190505b610d948582610d16565b865550610dfc565b601f198416610daa86610b86565b60005b82811015610dd257848901518255600182019150602085019450602081019050610dad565b86831015610def5784890151610deb601f891682610cf8565b8355505b6001600288020188555050505b505050505050565b60006060820190508181036000830152610e1e818661089c565b90508181036020830152610e32818561089c565b9050610e416040830184610525565b94935050505056fea264697066735822122070809302b94a85eb50f82d89c5a0fdeab4cef2b8e0e9c43bcf90d0e5a92b75f164736f6c63430008140033",
  "linkReferences": {},
  "deployedLinkReferences": {}
}